{
  "contractName": "MemoryToken",
  "abi": [
    {
      "inputs": [],
      "stateMutability": "nonpayable",
      "type": "constructor"
    },
    {
      "anonymous": false,
      "inputs": [
        {
          "indexed": true,
          "internalType": "address",
          "name": "owner",
          "type": "address"
        },
        {
          "indexed": true,
          "internalType": "address",
          "name": "approved",
          "type": "address"
        },
        {
          "indexed": true,
          "internalType": "uint256",
          "name": "tokenId",
          "type": "uint256"
        }
      ],
      "name": "Approval",
      "type": "event"
    },
    {
      "anonymous": false,
      "inputs": [
        {
          "indexed": true,
          "internalType": "address",
          "name": "owner",
          "type": "address"
        },
        {
          "indexed": true,
          "internalType": "address",
          "name": "operator",
          "type": "address"
        },
        {
          "indexed": false,
          "internalType": "bool",
          "name": "approved",
          "type": "bool"
        }
      ],
      "name": "ApprovalForAll",
      "type": "event"
    },
    {
      "anonymous": false,
      "inputs": [
        {
          "indexed": true,
          "internalType": "address",
          "name": "from",
          "type": "address"
        },
        {
          "indexed": true,
          "internalType": "address",
          "name": "to",
          "type": "address"
        },
        {
          "indexed": true,
          "internalType": "uint256",
          "name": "tokenId",
          "type": "uint256"
        }
      ],
      "name": "Transfer",
      "type": "event"
    },
    {
      "inputs": [
        {
          "internalType": "address",
          "name": "to",
          "type": "address"
        },
        {
          "internalType": "uint256",
          "name": "tokenId",
          "type": "uint256"
        }
      ],
      "name": "approve",
      "outputs": [],
      "stateMutability": "nonpayable",
      "type": "function"
    },
    {
      "inputs": [
        {
          "internalType": "address",
          "name": "owner",
          "type": "address"
        }
      ],
      "name": "balanceOf",
      "outputs": [
        {
          "internalType": "uint256",
          "name": "",
          "type": "uint256"
        }
      ],
      "stateMutability": "view",
      "type": "function",
      "constant": true
    },
    {
      "inputs": [
        {
          "internalType": "uint256",
          "name": "tokenId",
          "type": "uint256"
        }
      ],
      "name": "getApproved",
      "outputs": [
        {
          "internalType": "address",
          "name": "",
          "type": "address"
        }
      ],
      "stateMutability": "view",
      "type": "function",
      "constant": true
    },
    {
      "inputs": [
        {
          "internalType": "address",
          "name": "owner",
          "type": "address"
        },
        {
          "internalType": "address",
          "name": "operator",
          "type": "address"
        }
      ],
      "name": "isApprovedForAll",
      "outputs": [
        {
          "internalType": "bool",
          "name": "",
          "type": "bool"
        }
      ],
      "stateMutability": "view",
      "type": "function",
      "constant": true
    },
    {
      "inputs": [],
      "name": "name",
      "outputs": [
        {
          "internalType": "string",
          "name": "",
          "type": "string"
        }
      ],
      "stateMutability": "view",
      "type": "function",
      "constant": true
    },
    {
      "inputs": [
        {
          "internalType": "uint256",
          "name": "tokenId",
          "type": "uint256"
        }
      ],
      "name": "ownerOf",
      "outputs": [
        {
          "internalType": "address",
          "name": "",
          "type": "address"
        }
      ],
      "stateMutability": "view",
      "type": "function",
      "constant": true
    },
    {
      "inputs": [
        {
          "internalType": "address",
          "name": "from",
          "type": "address"
        },
        {
          "internalType": "address",
          "name": "to",
          "type": "address"
        },
        {
          "internalType": "uint256",
          "name": "tokenId",
          "type": "uint256"
        }
      ],
      "name": "safeTransferFrom",
      "outputs": [],
      "stateMutability": "nonpayable",
      "type": "function"
    },
    {
      "inputs": [
        {
          "internalType": "address",
          "name": "from",
          "type": "address"
        },
        {
          "internalType": "address",
          "name": "to",
          "type": "address"
        },
        {
          "internalType": "uint256",
          "name": "tokenId",
          "type": "uint256"
        },
        {
          "internalType": "bytes",
          "name": "_data",
          "type": "bytes"
        }
      ],
      "name": "safeTransferFrom",
      "outputs": [],
      "stateMutability": "nonpayable",
      "type": "function"
    },
    {
      "inputs": [
        {
          "internalType": "address",
          "name": "operator",
          "type": "address"
        },
        {
          "internalType": "bool",
          "name": "approved",
          "type": "bool"
        }
      ],
      "name": "setApprovalForAll",
      "outputs": [],
      "stateMutability": "nonpayable",
      "type": "function"
    },
    {
      "inputs": [
        {
          "internalType": "bytes4",
          "name": "interfaceId",
          "type": "bytes4"
        }
      ],
      "name": "supportsInterface",
      "outputs": [
        {
          "internalType": "bool",
          "name": "",
          "type": "bool"
        }
      ],
      "stateMutability": "view",
      "type": "function",
      "constant": true
    },
    {
      "inputs": [],
      "name": "symbol",
      "outputs": [
        {
          "internalType": "string",
          "name": "",
          "type": "string"
        }
      ],
      "stateMutability": "view",
      "type": "function",
      "constant": true
    },
    {
      "inputs": [
        {
          "internalType": "uint256",
          "name": "index",
          "type": "uint256"
        }
      ],
      "name": "tokenByIndex",
      "outputs": [
        {
          "internalType": "uint256",
          "name": "",
          "type": "uint256"
        }
      ],
      "stateMutability": "view",
      "type": "function",
      "constant": true
    },
    {
      "inputs": [
        {
          "internalType": "address",
          "name": "owner",
          "type": "address"
        },
        {
          "internalType": "uint256",
          "name": "index",
          "type": "uint256"
        }
      ],
      "name": "tokenOfOwnerByIndex",
      "outputs": [
        {
          "internalType": "uint256",
          "name": "",
          "type": "uint256"
        }
      ],
      "stateMutability": "view",
      "type": "function",
      "constant": true
    },
    {
      "inputs": [
        {
          "internalType": "uint256",
          "name": "tokenId",
          "type": "uint256"
        }
      ],
      "name": "tokenURI",
      "outputs": [
        {
          "internalType": "string",
          "name": "",
          "type": "string"
        }
      ],
      "stateMutability": "view",
      "type": "function",
      "constant": true
    },
    {
      "inputs": [],
      "name": "totalSupply",
      "outputs": [
        {
          "internalType": "uint256",
          "name": "",
          "type": "uint256"
        }
      ],
      "stateMutability": "view",
      "type": "function",
      "constant": true
    },
    {
      "inputs": [
        {
          "internalType": "address",
          "name": "from",
          "type": "address"
        },
        {
          "internalType": "address",
          "name": "to",
          "type": "address"
        },
        {
          "internalType": "uint256",
          "name": "tokenId",
          "type": "uint256"
        }
      ],
      "name": "transferFrom",
      "outputs": [],
      "stateMutability": "nonpayable",
      "type": "function"
    },
    {
      "inputs": [
        {
          "internalType": "address",
          "name": "_to",
          "type": "address"
        },
        {
          "internalType": "string",
          "name": "_tokenURI",
          "type": "string"
        }
      ],
      "name": "mint",
      "outputs": [
        {
          "internalType": "bool",
          "name": "",
          "type": "bool"
        }
      ],
      "stateMutability": "nonpayable",
      "type": "function"
    }
  ],
  "bytecode": "0x60806040523480156200001157600080fd5b506040518060400160405280600c81526020017f4d656d6f727920546f6b656e00000000000000000000000000000000000000008152506040518060400160405280600681526020017f4d454d4f52590000000000000000000000000000000000000000000000000000815250816000908051906020019062000096929190620000b8565b508060019080519060200190620000af929190620000b8565b505050620001cd565b828054620000c69062000197565b90600052602060002090601f016020900481019282620000ea576000855562000136565b82601f106200010557805160ff191683800117855562000136565b8280016001018555821562000136579182015b828111156200013557825182559160200191906001019062000118565b5b50905062000145919062000149565b5090565b5b80821115620001645760008160009055506001016200014a565b5090565b7f4e487b7100000000000000000000000000000000000000000000000000000000600052602260045260246000fd5b60006002820490506001821680620001b057607f821691505b60208210811415620001c757620001c662000168565b5b50919050565b612f8480620001dd6000396000f3fe608060405234801561001057600080fd5b506004361061010b5760003560e01c80634f6ccce7116100a2578063a22cb46511610071578063a22cb465146102de578063b88d4fde146102fa578063c87b56dd14610316578063d0def52114610346578063e985e9c5146103765761010b565b80634f6ccce7146102305780636352211e1461026057806370a082311461029057806395d89b41146102c05761010b565b806318160ddd116100de57806318160ddd146101aa57806323b872dd146101c85780632f745c59146101e457806342842e0e146102145761010b565b806301ffc9a71461011057806306fdde0314610140578063081812fc1461015e578063095ea7b31461018e575b600080fd5b61012a60048036038101906101259190611cb7565b6103a6565b6040516101379190611cff565b60405180910390f35b610148610420565b6040516101559190611db3565b60405180910390f35b61017860048036038101906101739190611e0b565b6104b2565b6040516101859190611e79565b60405180910390f35b6101a860048036038101906101a39190611ec0565b610537565b005b6101b261064f565b6040516101bf9190611f0f565b60405180910390f35b6101e260048036038101906101dd9190611f2a565b61065c565b005b6101fe60048036038101906101f99190611ec0565b6106bc565b60405161020b9190611f0f565b60405180910390f35b61022e60048036038101906102299190611f2a565b610761565b005b61024a60048036038101906102459190611e0b565b610781565b6040516102579190611f0f565b60405180910390f35b61027a60048036038101906102759190611e0b565b6107f2565b6040516102879190611e79565b60405180910390f35b6102aa60048036038101906102a59190611f7d565b6108a4565b6040516102b79190611f0f565b60405180910390f35b6102c861095c565b6040516102d59190611db3565b60405180910390f35b6102f860048036038101906102f39190611fd6565b6109ee565b005b610314600480360381019061030f919061214b565b610a04565b005b610330600480360381019061032b9190611e0b565b610a66565b60405161033d9190611db3565b60405180910390f35b610360600480360381019061035b919061226f565b610b0d565b60405161036d9190611cff565b60405180910390f35b610390600480360381019061038b91906122cb565b610b3b565b60405161039d9190611cff565b60405180910390f35b60007f780e9d63000000000000000000000000000000000000000000000000000000007bffffffffffffffffffffffffffffffffffffffffffffffffffffffff1916827bffffffffffffffffffffffffffffffffffffffffffffffffffffffff19161480610419575061041882610bcf565b5b9050919050565b60606000805461042f9061233a565b80601f016020809104026020016040519081016040528092919081815260200182805461045b9061233a565b80156104a85780601f1061047d576101008083540402835291602001916104a8565b820191906000526020600020905b81548152906001019060200180831161048b57829003601f168201915b5050505050905090565b60006104bd82610cb1565b6104fc576040517f08c379a00000000000000000000000000000000000000000000000000000000081526004016104f3906123de565b60405180910390fd5b6004600083815260200190815260200160002060009054906101000a900473ffffffffffffffffffffffffffffffffffffffff169050919050565b6000610542826107f2565b90508073ffffffffffffffffffffffffffffffffffffffff168373ffffffffffffffffffffffffffffffffffffffff1614156105b3576040517f08c379a00000000000000000000000000000000000000000000000000000000081526004016105aa90612470565b60405180910390fd5b8073ffffffffffffffffffffffffffffffffffffffff166105d2610d1d565b73ffffffffffffffffffffffffffffffffffffffff1614806106015750610600816105fb610d1d565b610b3b565b5b610640576040517f08c379a000000000000000000000000000000000000000000000000000000000815260040161063790612502565b60405180910390fd5b61064a8383610d25565b505050565b6000600880549050905090565b61066d610667610d1d565b82610dde565b6106ac576040517f08c379a00000000000000000000000000000000000000000000000000000000081526004016106a390612594565b60405180910390fd5b6106b7838383610ebc565b505050565b60006106c7836108a4565b8210610708576040517f08c379a00000000000000000000000000000000000000000000000000000000081526004016106ff90612626565b60405180910390fd5b600660008473ffffffffffffffffffffffffffffffffffffffff1673ffffffffffffffffffffffffffffffffffffffff168152602001908152602001600020600083815260200190815260200160002054905092915050565b61077c83838360405180602001604052806000815250610a04565b505050565b600061078b61064f565b82106107cc576040517f08c379a00000000000000000000000000000000000000000000000000000000081526004016107c3906126b8565b60405180910390fd5b600882815481106107e0576107df6126d8565b5b90600052602060002001549050919050565b6000806002600084815260200190815260200160002060009054906101000a900473ffffffffffffffffffffffffffffffffffffffff169050600073ffffffffffffffffffffffffffffffffffffffff168173ffffffffffffffffffffffffffffffffffffffff16141561089b576040517f08c379a000000000000000000000000000000000000000000000000000000000815260040161089290612779565b60405180910390fd5b80915050919050565b60008073ffffffffffffffffffffffffffffffffffffffff168273ffffffffffffffffffffffffffffffffffffffff161415610915576040517f08c379a000000000000000000000000000000000000000000000000000000000815260040161090c9061280b565b60405180910390fd5b600360008373ffffffffffffffffffffffffffffffffffffffff1673ffffffffffffffffffffffffffffffffffffffff168152602001908152602001600020549050919050565b60606001805461096b9061233a565b80601f01602080910402602001604051908101604052809291908181526020018280546109979061233a565b80156109e45780601f106109b9576101008083540402835291602001916109e4565b820191906000526020600020905b8154815290600101906020018083116109c757829003601f168201915b5050505050905090565b610a006109f9610d1d565b8383611118565b5050565b610a15610a0f610d1d565b83610dde565b610a54576040517f08c379a0000000000000000000000000000000000000000000000000000000008152600401610a4b90612594565b60405180910390fd5b610a6084848484611285565b50505050565b6060610a7182610cb1565b610ab0576040517f08c379a0000000000000000000000000000000000000000000000000000000008152600401610aa79061289d565b60405180910390fd5b6000610aba6112e1565b90506000815111610ada5760405180602001604052806000815250610b05565b80610ae4846112f8565b604051602001610af59291906128f9565b6040516020818303038152906040525b915050919050565b6000806001610b1a61064f565b610b24919061294c565b9050610b308482611459565b600191505092915050565b6000600560008473ffffffffffffffffffffffffffffffffffffffff1673ffffffffffffffffffffffffffffffffffffffff16815260200190815260200160002060008373ffffffffffffffffffffffffffffffffffffffff1673ffffffffffffffffffffffffffffffffffffffff16815260200190815260200160002060009054906101000a900460ff16905092915050565b60007f80ac58cd000000000000000000000000000000000000000000000000000000007bffffffffffffffffffffffffffffffffffffffffffffffffffffffff1916827bffffffffffffffffffffffffffffffffffffffffffffffffffffffff19161480610c9a57507f5b5e139f000000000000000000000000000000000000000000000000000000007bffffffffffffffffffffffffffffffffffffffffffffffffffffffff1916827bffffffffffffffffffffffffffffffffffffffffffffffffffffffff1916145b80610caa5750610ca982611627565b5b9050919050565b60008073ffffffffffffffffffffffffffffffffffffffff166002600084815260200190815260200160002060009054906101000a900473ffffffffffffffffffffffffffffffffffffffff1673ffffffffffffffffffffffffffffffffffffffff1614159050919050565b600033905090565b816004600083815260200190815260200160002060006101000a81548173ffffffffffffffffffffffffffffffffffffffff021916908373ffffffffffffffffffffffffffffffffffffffff160217905550808273ffffffffffffffffffffffffffffffffffffffff16610d98836107f2565b73ffffffffffffffffffffffffffffffffffffffff167f8c5be1e5ebec7d5bd14f71427d1e84f3dd0314c0f7b2291e5b200ac8c7c3b92560405160405180910390a45050565b6000610de982610cb1565b610e28576040517f08c379a0000000000000000000000000000000000000000000000000000000008152600401610e1f90612a14565b60405180910390fd5b6000610e33836107f2565b90508073ffffffffffffffffffffffffffffffffffffffff168473ffffffffffffffffffffffffffffffffffffffff161480610ea257508373ffffffffffffffffffffffffffffffffffffffff16610e8a846104b2565b73ffffffffffffffffffffffffffffffffffffffff16145b80610eb35750610eb28185610b3b565b5b91505092915050565b8273ffffffffffffffffffffffffffffffffffffffff16610edc826107f2565b73ffffffffffffffffffffffffffffffffffffffff1614610f32576040517f08c379a0000000000000000000000000000000000000000000000000000000008152600401610f2990612aa6565b60405180910390fd5b600073ffffffffffffffffffffffffffffffffffffffff168273ffffffffffffffffffffffffffffffffffffffff161415610fa2576040517f08c379a0000000000000000000000000000000000000000000000000000000008152600401610f9990612b38565b60405180910390fd5b610fad838383611691565b610fb8600082610d25565b6001600360008573ffffffffffffffffffffffffffffffffffffffff1673ffffffffffffffffffffffffffffffffffffffff16815260200190815260200160002060008282546110089190612b58565b925050819055506001600360008473ffffffffffffffffffffffffffffffffffffffff1673ffffffffffffffffffffffffffffffffffffffff168152602001908152602001600020600082825461105f919061294c565b92505081905550816002600083815260200190815260200160002060006101000a81548173ffffffffffffffffffffffffffffffffffffffff021916908373ffffffffffffffffffffffffffffffffffffffff160217905550808273ffffffffffffffffffffffffffffffffffffffff168473ffffffffffffffffffffffffffffffffffffffff167fddf252ad1be2c89b69c2b068fc378daa952ba7f163c4a11628f55a4df523b3ef60405160405180910390a4505050565b8173ffffffffffffffffffffffffffffffffffffffff168373ffffffffffffffffffffffffffffffffffffffff161415611187576040517f08c379a000000000000000000000000000000000000000000000000000000000815260040161117e90612bd8565b60405180910390fd5b80600560008573ffffffffffffffffffffffffffffffffffffffff1673ffffffffffffffffffffffffffffffffffffffff16815260200190815260200160002060008473ffffffffffffffffffffffffffffffffffffffff1673ffffffffffffffffffffffffffffffffffffffff16815260200190815260200160002060006101000a81548160ff0219169083151502179055508173ffffffffffffffffffffffffffffffffffffffff168373ffffffffffffffffffffffffffffffffffffffff167f17307eab39ab6107e8899845ad3d59bd9653f200f220920489ca2b5937696c31836040516112789190611cff565b60405180910390a3505050565b611290848484610ebc565b61129c848484846117a5565b6112db576040517f08c379a00000000000000000000000000000000000000000000000000000000081526004016112d290612c6a565b60405180910390fd5b50505050565b606060405180602001604052806000815250905090565b60606000821415611340576040518060400160405280600181526020017f30000000000000000000000000000000000000000000000000000000000000008152509050611454565b600082905060005b6000821461137257808061135b90612c8a565b915050600a8261136b9190612d02565b9150611348565b60008167ffffffffffffffff81111561138e5761138d612020565b5b6040519080825280601f01601f1916602001820160405280156113c05781602001600182028036833780820191505090505b5090505b6000851461144d576001826113d99190612b58565b9150600a856113e89190612d33565b60306113f4919061294c565b60f81b81838151811061140a576114096126d8565b5b60200101907effffffffffffffffffffffffffffffffffffffffffffffffffffffffffffff1916908160001a905350600a856114469190612d02565b94506113c4565b8093505050505b919050565b600073ffffffffffffffffffffffffffffffffffffffff168273ffffffffffffffffffffffffffffffffffffffff1614156114c9576040517f08c379a00000000000000000000000000000000000000000000000000000000081526004016114c090612db0565b60405180910390fd5b6114d281610cb1565b15611512576040517f08c379a000000000000000000000000000000000000000000000000000000000815260040161150990612e1c565b60405180910390fd5b61151e60008383611691565b6001600360008473ffffffffffffffffffffffffffffffffffffffff1673ffffffffffffffffffffffffffffffffffffffff168152602001908152602001600020600082825461156e919061294c565b92505081905550816002600083815260200190815260200160002060006101000a81548173ffffffffffffffffffffffffffffffffffffffff021916908373ffffffffffffffffffffffffffffffffffffffff160217905550808273ffffffffffffffffffffffffffffffffffffffff16600073ffffffffffffffffffffffffffffffffffffffff167fddf252ad1be2c89b69c2b068fc378daa952ba7f163c4a11628f55a4df523b3ef60405160405180910390a45050565b60007f01ffc9a7000000000000000000000000000000000000000000000000000000007bffffffffffffffffffffffffffffffffffffffffffffffffffffffff1916827bffffffffffffffffffffffffffffffffffffffffffffffffffffffff1916149050919050565b61169c83838361192d565b600073ffffffffffffffffffffffffffffffffffffffff168373ffffffffffffffffffffffffffffffffffffffff1614156116df576116da81611932565b61171e565b8173ffffffffffffffffffffffffffffffffffffffff168373ffffffffffffffffffffffffffffffffffffffff161461171d5761171c838261197b565b5b5b600073ffffffffffffffffffffffffffffffffffffffff168273ffffffffffffffffffffffffffffffffffffffff1614156117615761175c81611ae8565b6117a0565b8273ffffffffffffffffffffffffffffffffffffffff168273ffffffffffffffffffffffffffffffffffffffff161461179f5761179e8282611bb9565b5b5b505050565b60006117c68473ffffffffffffffffffffffffffffffffffffffff16611c38565b15611920578373ffffffffffffffffffffffffffffffffffffffff1663150b7a026117ef610d1d565b8786866040518563ffffffff1660e01b81526004016118119493929190612e91565b6020604051808303816000875af192505050801561184d57506040513d601f19601f8201168201806040525081019061184a9190612ef2565b60015b6118d0573d806000811461187d576040519150601f19603f3d011682016040523d82523d6000602084013e611882565b606091505b506000815114156118c8576040517f08c379a00000000000000000000000000000000000000000000000000000000081526004016118bf90612c6a565b60405180910390fd5b805181602001fd5b63150b7a0260e01b7bffffffffffffffffffffffffffffffffffffffffffffffffffffffff1916817bffffffffffffffffffffffffffffffffffffffffffffffffffffffff191614915050611925565b600190505b949350505050565b505050565b6008805490506009600083815260200190815260200160002081905550600881908060018154018082558091505060019003906000526020600020016000909190919091505550565b60006001611988846108a4565b6119929190612b58565b9050600060076000848152602001908152602001600020549050818114611a77576000600660008673ffffffffffffffffffffffffffffffffffffffff1673ffffffffffffffffffffffffffffffffffffffff168152602001908152602001600020600084815260200190815260200160002054905080600660008773ffffffffffffffffffffffffffffffffffffffff1673ffffffffffffffffffffffffffffffffffffffff168152602001908152602001600020600084815260200190815260200160002081905550816007600083815260200190815260200160002081905550505b6007600084815260200190815260200160002060009055600660008573ffffffffffffffffffffffffffffffffffffffff1673ffffffffffffffffffffffffffffffffffffffff16815260200190815260200160002060008381526020019081526020016000206000905550505050565b60006001600880549050611afc9190612b58565b9050600060096000848152602001908152602001600020549050600060088381548110611b2c57611b2b6126d8565b5b906000526020600020015490508060088381548110611b4e57611b4d6126d8565b5b906000526020600020018190555081600960008381526020019081526020016000208190555060096000858152602001908152602001600020600090556008805480611b9d57611b9c612f1f565b5b6001900381819060005260206000200160009055905550505050565b6000611bc4836108a4565b905081600660008573ffffffffffffffffffffffffffffffffffffffff1673ffffffffffffffffffffffffffffffffffffffff168152602001908152602001600020600083815260200190815260200160002081905550806007600084815260200190815260200160002081905550505050565b600080823b905060008111915050919050565b6000604051905090565b600080fd5b600080fd5b60007fffffffff0000000000000000000000000000000000000000000000000000000082169050919050565b611c9481611c5f565b8114611c9f57600080fd5b50565b600081359050611cb181611c8b565b92915050565b600060208284031215611ccd57611ccc611c55565b5b6000611cdb84828501611ca2565b91505092915050565b60008115159050919050565b611cf981611ce4565b82525050565b6000602082019050611d146000830184611cf0565b92915050565b600081519050919050565b600082825260208201905092915050565b60005b83811015611d54578082015181840152602081019050611d39565b83811115611d63576000848401525b50505050565b6000601f19601f8301169050919050565b6000611d8582611d1a565b611d8f8185611d25565b9350611d9f818560208601611d36565b611da881611d69565b840191505092915050565b60006020820190508181036000830152611dcd8184611d7a565b905092915050565b6000819050919050565b611de881611dd5565b8114611df357600080fd5b50565b600081359050611e0581611ddf565b92915050565b600060208284031215611e2157611e20611c55565b5b6000611e2f84828501611df6565b91505092915050565b600073ffffffffffffffffffffffffffffffffffffffff82169050919050565b6000611e6382611e38565b9050919050565b611e7381611e58565b82525050565b6000602082019050611e8e6000830184611e6a565b92915050565b611e9d81611e58565b8114611ea857600080fd5b50565b600081359050611eba81611e94565b92915050565b60008060408385031215611ed757611ed6611c55565b5b6000611ee585828601611eab565b9250506020611ef685828601611df6565b9150509250929050565b611f0981611dd5565b82525050565b6000602082019050611f246000830184611f00565b92915050565b600080600060608486031215611f4357611f42611c55565b5b6000611f5186828701611eab565b9350506020611f6286828701611eab565b9250506040611f7386828701611df6565b9150509250925092565b600060208284031215611f9357611f92611c55565b5b6000611fa184828501611eab565b91505092915050565b611fb381611ce4565b8114611fbe57600080fd5b50565b600081359050611fd081611faa565b92915050565b60008060408385031215611fed57611fec611c55565b5b6000611ffb85828601611eab565b925050602061200c85828601611fc1565b9150509250929050565b600080fd5b600080fd5b7f4e487b7100000000000000000000000000000000000000000000000000000000600052604160045260246000fd5b61205882611d69565b810181811067ffffffffffffffff8211171561207757612076612020565b5b80604052505050565b600061208a611c4b565b9050612096828261204f565b919050565b600067ffffffffffffffff8211156120b6576120b5612020565b5b6120bf82611d69565b9050602081019050919050565b82818337600083830152505050565b60006120ee6120e98461209b565b612080565b90508281526020810184848401111561210a5761210961201b565b5b6121158482856120cc565b509392505050565b600082601f83011261213257612131612016565b5b81356121428482602086016120db565b91505092915050565b6000806000806080858703121561216557612164611c55565b5b600061217387828801611eab565b945050602061218487828801611eab565b935050604061219587828801611df6565b925050606085013567ffffffffffffffff8111156121b6576121b5611c5a565b5b6121c28782880161211d565b91505092959194509250565b600067ffffffffffffffff8211156121e9576121e8612020565b5b6121f282611d69565b9050602081019050919050565b600061221261220d846121ce565b612080565b90508281526020810184848401111561222e5761222d61201b565b5b6122398482856120cc565b509392505050565b600082601f83011261225657612255612016565b5b81356122668482602086016121ff565b91505092915050565b6000806040838503121561228657612285611c55565b5b600061229485828601611eab565b925050602083013567ffffffffffffffff8111156122b5576122b4611c5a565b5b6122c185828601612241565b9150509250929050565b600080604083850312156122e2576122e1611c55565b5b60006122f085828601611eab565b925050602061230185828601611eab565b9150509250929050565b7f4e487b7100000000000000000000000000000000000000000000000000000000600052602260045260246000fd5b6000600282049050600182168061235257607f821691505b602082108114156123665761236561230b565b5b50919050565b7f4552433732313a20617070726f76656420717565727920666f72206e6f6e657860008201527f697374656e7420746f6b656e0000000000000000000000000000000000000000602082015250565b60006123c8602c83611d25565b91506123d38261236c565b604082019050919050565b600060208201905081810360008301526123f7816123bb565b9050919050565b7f4552433732313a20617070726f76616c20746f2063757272656e74206f776e6560008201527f7200000000000000000000000000000000000000000000000000000000000000602082015250565b600061245a602183611d25565b9150612465826123fe565b604082019050919050565b600060208201905081810360008301526124898161244d565b9050919050565b7f4552433732313a20617070726f76652063616c6c6572206973206e6f74206f7760008201527f6e6572206e6f7220617070726f76656420666f7220616c6c0000000000000000602082015250565b60006124ec603883611d25565b91506124f782612490565b604082019050919050565b6000602082019050818103600083015261251b816124df565b9050919050565b7f4552433732313a207472616e736665722063616c6c6572206973206e6f74206f60008201527f776e6572206e6f7220617070726f766564000000000000000000000000000000602082015250565b600061257e603183611d25565b915061258982612522565b604082019050919050565b600060208201905081810360008301526125ad81612571565b9050919050565b7f455243373231456e756d657261626c653a206f776e657220696e646578206f7560008201527f74206f6620626f756e6473000000000000000000000000000000000000000000602082015250565b6000612610602b83611d25565b915061261b826125b4565b604082019050919050565b6000602082019050818103600083015261263f81612603565b9050919050565b7f455243373231456e756d657261626c653a20676c6f62616c20696e646578206f60008201527f7574206f6620626f756e64730000000000000000000000000000000000000000602082015250565b60006126a2602c83611d25565b91506126ad82612646565b604082019050919050565b600060208201905081810360008301526126d181612695565b9050919050565b7f4e487b7100000000000000000000000000000000000000000000000000000000600052603260045260246000fd5b7f4552433732313a206f776e657220717565727920666f72206e6f6e657869737460008201527f656e7420746f6b656e0000000000000000000000000000000000000000000000602082015250565b6000612763602983611d25565b915061276e82612707565b604082019050919050565b6000602082019050818103600083015261279281612756565b9050919050565b7f4552433732313a2062616c616e636520717565727920666f7220746865207a6560008201527f726f206164647265737300000000000000000000000000000000000000000000602082015250565b60006127f5602a83611d25565b915061280082612799565b604082019050919050565b60006020820190508181036000830152612824816127e8565b9050919050565b7f4552433732314d657461646174613a2055524920717565727920666f72206e6f60008201527f6e6578697374656e7420746f6b656e0000000000000000000000000000000000602082015250565b6000612887602f83611d25565b91506128928261282b565b604082019050919050565b600060208201905081810360008301526128b68161287a565b9050919050565b600081905092915050565b60006128d382611d1a565b6128dd81856128bd565b93506128ed818560208601611d36565b80840191505092915050565b600061290582856128c8565b915061291182846128c8565b91508190509392505050565b7f4e487b7100000000000000000000000000000000000000000000000000000000600052601160045260246000fd5b600061295782611dd5565b915061296283611dd5565b9250827fffffffffffffffffffffffffffffffffffffffffffffffffffffffffffffffff038211156129975761299661291d565b5b828201905092915050565b7f4552433732313a206f70657261746f7220717565727920666f72206e6f6e657860008201527f697374656e7420746f6b656e0000000000000000000000000000000000000000602082015250565b60006129fe602c83611d25565b9150612a09826129a2565b604082019050919050565b60006020820190508181036000830152612a2d816129f1565b9050919050565b7f4552433732313a207472616e73666572206f6620746f6b656e2074686174206960008201527f73206e6f74206f776e0000000000000000000000000000000000000000000000602082015250565b6000612a90602983611d25565b9150612a9b82612a34565b604082019050919050565b60006020820190508181036000830152612abf81612a83565b9050919050565b7f4552433732313a207472616e7366657220746f20746865207a65726f2061646460008201527f7265737300000000000000000000000000000000000000000000000000000000602082015250565b6000612b22602483611d25565b9150612b2d82612ac6565b604082019050919050565b60006020820190508181036000830152612b5181612b15565b9050919050565b6000612b6382611dd5565b9150612b6e83611dd5565b925082821015612b8157612b8061291d565b5b828203905092915050565b7f4552433732313a20617070726f766520746f2063616c6c657200000000000000600082015250565b6000612bc2601983611d25565b9150612bcd82612b8c565b602082019050919050565b60006020820190508181036000830152612bf181612bb5565b9050919050565b7f4552433732313a207472616e7366657220746f206e6f6e20455243373231526560008201527f63656976657220696d706c656d656e7465720000000000000000000000000000602082015250565b6000612c54603283611d25565b9150612c5f82612bf8565b604082019050919050565b60006020820190508181036000830152612c8381612c47565b9050919050565b6000612c9582611dd5565b91507fffffffffffffffffffffffffffffffffffffffffffffffffffffffffffffffff821415612cc857612cc761291d565b5b600182019050919050565b7f4e487b7100000000000000000000000000000000000000000000000000000000600052601260045260246000fd5b6000612d0d82611dd5565b9150612d1883611dd5565b925082612d2857612d27612cd3565b5b828204905092915050565b6000612d3e82611dd5565b9150612d4983611dd5565b925082612d5957612d58612cd3565b5b828206905092915050565b7f4552433732313a206d696e7420746f20746865207a65726f2061646472657373600082015250565b6000612d9a602083611d25565b9150612da582612d64565b602082019050919050565b60006020820190508181036000830152612dc981612d8d565b9050919050565b7f4552433732313a20746f6b656e20616c7265616479206d696e74656400000000600082015250565b6000612e06601c83611d25565b9150612e1182612dd0565b602082019050919050565b60006020820190508181036000830152612e3581612df9565b9050919050565b600081519050919050565b600082825260208201905092915050565b6000612e6382612e3c565b612e6d8185612e47565b9350612e7d818560208601611d36565b612e8681611d69565b840191505092915050565b6000608082019050612ea66000830187611e6a565b612eb36020830186611e6a565b612ec06040830185611f00565b8181036060830152612ed28184612e58565b905095945050505050565b600081519050612eec81611c8b565b92915050565b600060208284031215612f0857612f07611c55565b5b6000612f1684828501612edd565b91505092915050565b7f4e487b7100000000000000000000000000000000000000000000000000000000600052603160045260246000fdfea2646970667358221220d90fcde06f0bdfbe7f20473ceae329ba52ddb33a255f4e30c6955380597b2d0664736f6c634300080b0033",
  "immutableReferences": {},
  "source": "pragma solidity ^0.8.4;\r\n\r\n\r\nimport \"@openzeppelin/contracts/token/ERC721/extensions/ERC721Enumerable.sol\";\r\nimport \"@openzeppelin/contracts/token/ERC721/ERC721.sol\";\r\nimport \"@openzeppelin/contracts/token/ERC721/extensions/IERC721Metadata.sol\";\r\nimport \"@openzeppelin/contracts/token/ERC721/extensions/ERC721URIStorage.sol\";\r\n\r\ncontract MemoryToken is ERC721Enumerable  {\r\n  \r\n\r\n  constructor() ERC721('Memory Token', 'MEMORY')public{}\r\n\r\n  function mint(address _to,string memory _tokenURI) public returns(bool) {\r\n       uint _tokenId = totalSupply() + 1;\r\n       _mint(_to, _tokenId);\r\n       //_setTokenURI(_tokenId, _tokenURI);\r\n       return true;\r\n    }\r\n\r\n  }\r\n\r\n\r\n\r\n\r\n",
  "sourcePath": "C:\\Users\\RvD\\memory_game\\src\\contracts\\MemoryToken.sol",
  "compiler": {
    "name": "solc",
    "version": "0.8.11+commit.d7f03943.Emscripten.clang"
  },
  "schemaVersion": "3.4.4",
  "updatedAt": "2022-01-30T23:54:40.121Z",
  "networkType": "ethereum",
  "devdoc": {
    "kind": "dev",
    "methods": {
      "approve(address,uint256)": {
        "details": "See {IERC721-approve}."
      },
      "balanceOf(address)": {
        "details": "See {IERC721-balanceOf}."
      },
      "getApproved(uint256)": {
        "details": "See {IERC721-getApproved}."
      },
      "isApprovedForAll(address,address)": {
        "details": "See {IERC721-isApprovedForAll}."
      },
      "name()": {
        "details": "See {IERC721Metadata-name}."
      },
      "ownerOf(uint256)": {
        "details": "See {IERC721-ownerOf}."
      },
      "safeTransferFrom(address,address,uint256)": {
        "details": "See {IERC721-safeTransferFrom}."
      },
      "safeTransferFrom(address,address,uint256,bytes)": {
        "details": "See {IERC721-safeTransferFrom}."
      },
      "setApprovalForAll(address,bool)": {
        "details": "See {IERC721-setApprovalForAll}."
      },
      "supportsInterface(bytes4)": {
        "details": "See {IERC165-supportsInterface}."
      },
      "symbol()": {
        "details": "See {IERC721Metadata-symbol}."
      },
      "tokenByIndex(uint256)": {
        "details": "See {IERC721Enumerable-tokenByIndex}."
      },
      "tokenOfOwnerByIndex(address,uint256)": {
        "details": "See {IERC721Enumerable-tokenOfOwnerByIndex}."
      },
      "tokenURI(uint256)": {
        "details": "See {IERC721Metadata-tokenURI}."
      },
      "totalSupply()": {
        "details": "See {IERC721Enumerable-totalSupply}."
      },
      "transferFrom(address,address,uint256)": {
        "details": "See {IERC721-transferFrom}."
      }
    },
    "version": 1
  },
  "userdoc": {
    "kind": "user",
    "methods": {},
    "version": 1
  }
}